{
  "abi": [
    {
      "inputs": [
        {
          "internalType": "string",
          "name": "_name",
          "type": "string"
        },
        {
          "internalType": "address",
          "name": "_communityToken",
          "type": "address"
        },
        {
          "internalType": "address",
          "name": "_soulboundToken",
          "type": "address"
        }
      ],
      "stateMutability": "nonpayable",
      "type": "constructor"
    },
    {
      "anonymous": false,
      "inputs": [
        {
          "indexed": true,
          "internalType": "address",
          "name": "from",
          "type": "address"
        },
        {
          "indexed": false,
          "internalType": "uint256",
          "name": "amount",
          "type": "uint256"
        }
      ],
      "name": "Deposit",
      "type": "event"
    },
    {
      "anonymous": false,
      "inputs": [
        {
          "indexed": true,
          "internalType": "address",
          "name": "to",
          "type": "address"
        },
        {
          "indexed": false,
          "internalType": "uint256",
          "name": "amount",
          "type": "uint256"
        }
      ],
      "name": "Withdraw",
      "type": "event"
    },
    {
      "inputs": [],
      "name": "communityToken",
      "outputs": [
        {
          "internalType": "contract ERC20",
          "name": "",
          "type": "address"
        }
      ],
      "stateMutability": "view",
      "type": "function"
    },
    {
      "inputs": [],
      "name": "joinCommunity",
      "outputs": [],
      "stateMutability": "nonpayable",
      "type": "function"
    },
    {
      "inputs": [],
      "name": "name",
      "outputs": [
        {
          "internalType": "string",
          "name": "",
          "type": "string"
        }
      ],
      "stateMutability": "view",
      "type": "function"
    },
    {
      "inputs": [
        {
          "internalType": "address",
          "name": "",
          "type": "address"
        }
      ],
      "name": "netAmount",
      "outputs": [
        {
          "internalType": "int256",
          "name": "",
          "type": "int256"
        }
      ],
      "stateMutability": "view",
      "type": "function"
    },
    {
      "inputs": [
        {
          "internalType": "address",
          "name": "token",
          "type": "address"
        },
        {
          "internalType": "address",
          "name": "from",
          "type": "address"
        },
        {
          "internalType": "uint256",
          "name": "amount",
          "type": "uint256"
        }
      ],
      "name": "onTransfer",
      "outputs": [
        {
          "internalType": "bytes4",
          "name": "",
          "type": "bytes4"
        }
      ],
      "stateMutability": "nonpayable",
      "type": "function"
    },
    {
      "inputs": [],
      "name": "soulboundToken",
      "outputs": [
        {
          "internalType": "contract SoulBoundToken",
          "name": "",
          "type": "address"
        }
      ],
      "stateMutability": "view",
      "type": "function"
    },
    {
      "inputs": [
        {
          "internalType": "uint256",
          "name": "amount",
          "type": "uint256"
        }
      ],
      "name": "withdraw",
      "outputs": [],
      "stateMutability": "nonpayable",
      "type": "function"
    }
  ],
  "bytecode": {
    "object": "0x60806040523480156200001157600080fd5b5060405162000ae838038062000ae88339810160408190526200003491620000a9565b600062000042848262000232565b50600180546001600160a01b039384166001600160a01b0319918216179091556002805492909316911617905550620002fe565b634e487b7160e01b600052604160045260246000fd5b80516001600160a01b0381168114620000a457600080fd5b919050565b600080600060608486031215620000bf57600080fd5b83516001600160401b0380821115620000d757600080fd5b818601915086601f830112620000ec57600080fd5b81518181111562000101576200010162000076565b604051601f8201601f19908116603f011681019083821181831017156200012c576200012c62000076565b816040528281526020935089848487010111156200014957600080fd5b600091505b828210156200016d57848201840151818301850152908301906200014e565b6000848483010152809750505050620001888187016200008c565b935050506200019a604085016200008c565b90509250925092565b600181811c90821680620001b857607f821691505b602082108103620001d957634e487b7160e01b600052602260045260246000fd5b50919050565b601f8211156200022d57600081815260208120601f850160051c81016020861015620002085750805b601f850160051c820191505b81811015620002295782815560010162000214565b5050505b505050565b81516001600160401b038111156200024e576200024e62000076565b62000266816200025f8454620001a3565b84620001df565b602080601f8311600181146200029e5760008415620002855750858301515b600019600386901b1c1916600185901b17855562000229565b600085815260208120601f198616915b82811015620002cf57888601518255948401946001909101908401620002ae565b5085821015620002ee5787850151600019600388901b60f8161c191681555b5050505050600190811b01905550565b6107da806200030e6000396000f3fe608060405234801561001057600080fd5b506004361061007c5760003560e01c80632e1a7d4d1161005b5780632e1a7d4d146100d45780634a393149146100e7578063a719249214610113578063b33b9cf91461012657600080fd5b8062b16fee1461008157806306fdde031461008b57806329aa1617146100a9575b600080fd5b610089610154565b005b610093610271565b6040516100a091906105dd565b60405180910390f35b6001546100bc906001600160a01b031681565b6040516001600160a01b0390911681526020016100a0565b6100896100e236600461062b565b6102ff565b6100fa6100f5366004610660565b61048f565b6040516001600160e01b031990911681526020016100a0565b6002546100bc906001600160a01b031681565b61014661013436600461069c565b60036020526000908152604090205481565b6040519081526020016100a0565b6002546040516370a0823160e01b81523360048201526001600160a01b03909116906370a0823190602401602060405180830381865afa15801561019c573d6000803e3d6000fd5b505050506040513d601f19601f820116820180604052508101906101c091906106be565b156102125760405162461bcd60e51b815260206004820152601d60248201527f536f756c426f756e64546f6b656e20616c72656164792065786973747300000060448201526064015b60405180910390fd5b6002546040516335313c2160e11b81523360048201526001600160a01b0390911690636a62784290602401600060405180830381600087803b15801561025757600080fd5b505af115801561026b573d6000803e3d6000fd5b50505050565b6000805461027e906106d7565b80601f01602080910402602001604051908101604052809291908181526020018280546102aa906106d7565b80156102f75780601f106102cc576101008083540402835291602001916102f7565b820191906000526020600020905b8154815290600101906020018083116102da57829003601f168201915b505050505081565b33600090815260036020526040902080548290039081905561032090610727565b6001546040516370a0823160e01b81523060048201526064916001600160a01b0316906370a0823190602401602060405180830381865afa158015610369573d6000803e3d6000fd5b505050506040513d601f19601f8201168201806040525081019061038d91906106be565b610398906014610743565b6103a29190610760565b12156104165760405162461bcd60e51b815260206004820152603860248201527f496e646976696475616c2063616e6e6f7420626f72726f77206d6f726520746860448201527f616e20323025206f662074686520746f74616c2066756e6400000000000000006064820152608401610209565b60015460405163a9059cbb60e01b8152306004820152602481018390526001600160a01b039091169063a9059cbb906044016020604051808303816000875af1158015610467573d6000803e3d6000fd5b505050506040513d601f19601f8201168201806040525081019061048b9190610782565b5050565b6001546000906001600160a01b038581169116146104ac57600080fd5b6002546040516370a0823160e01b81526001600160a01b03858116600483015260019216906370a0823190602401602060405180830381865afa1580156104f7573d6000803e3d6000fd5b505050506040513d601f19601f8201168201806040525081019061051b91906106be565b10156105755760405162461bcd60e51b8152602060048201526024808201527f436f6d6d756e69747920536f756c426f756e64546f6b656e206e6f74207072656044820152631cd95b9d60e21b6064820152608401610209565b6001600160a01b03831660008181526003602052604090819020805485019055517fe1fffcc4923d04b559f4d29a8bfc6cda04eb5b0d3c460751c2402c5c5cc9109c906105c59085815260200190565b60405180910390a250634a39314960e01b9392505050565b600060208083528351808285015260005b8181101561060a578581018301518582016040015282016105ee565b506000604082860101526040601f19601f8301168501019250505092915050565b60006020828403121561063d57600080fd5b5035919050565b80356001600160a01b038116811461065b57600080fd5b919050565b60008060006060848603121561067557600080fd5b61067e84610644565b925061068c60208501610644565b9150604084013590509250925092565b6000602082840312156106ae57600080fd5b6106b782610644565b9392505050565b6000602082840312156106d057600080fd5b5051919050565b600181811c908216806106eb57607f821691505b60208210810361070b57634e487b7160e01b600052602260045260246000fd5b50919050565b634e487b7160e01b600052601160045260246000fd5b6000600160ff1b820161073c5761073c610711565b5060000390565b808202811582820484141761075a5761075a610711565b92915050565b60008261077d57634e487b7160e01b600052601260045260246000fd5b500490565b60006020828403121561079457600080fd5b815180151581146106b757600080fdfea26469706673582212202edf260db41684738cab83a7ecbc15213831baec781e017104ab3c8c1dc2de8c64736f6c63430008110033",
    "linkReferences": {}
  },
  "methodIdentifiers": {
    "communityToken()": "29aa1617",
    "joinCommunity()": "00b16fee",
    "name()": "06fdde03",
    "netAmount(address)": "b33b9cf9",
    "onTransfer(address,address,uint256)": "4a393149",
    "soulboundToken()": "a7192492",
    "withdraw(uint256)": "2e1a7d4d"
  },
  "id": 2
}