{
  "abi": [
    {
      "inputs": [
        {
          "internalType": "uint256",
          "name": "",
          "type": "uint256"
        }
      ],
      "name": "communities",
      "outputs": [
        {
          "internalType": "address",
          "name": "",
          "type": "address"
        }
      ],
      "stateMutability": "view",
      "type": "function"
    },
    {
      "inputs": [
        {
          "internalType": "string",
          "name": "name",
          "type": "string"
        }
      ],
      "name": "create",
      "outputs": [
        {
          "internalType": "address",
          "name": "",
          "type": "address"
        }
      ],
      "stateMutability": "nonpayable",
      "type": "function"
    }
  ],
  "bytecode": {
    "object": "0x608060405234801561001057600080fd5b50613000806100206000396000f3fe60806040523480156200001157600080fd5b50600436106200003a5760003560e01c8063b6a46b3b146200003f578063e590b56a1462000072575b600080fd5b620000566200005036600462000254565b62000089565b6040516001600160a01b03909116815260200160405180910390f35b62000056620000833660046200030f565b620001e9565b600080826040516020016200009f91906200034f565b604051602081830303815290604052905060008182604051620000c29062000214565b620000cf929190620003a7565b604051809103906000f080158015620000ec573d6000803e3d6000fd5b509050600084604051602001620001049190620003d9565b6040516020818303038152906040529050600081826008604051620001299062000222565b620001379392919062000401565b604051809103906000f08015801562000154573d6000803e3d6000fd5b50905060008684836040516200016a9062000230565b62000178939291906200043e565b604051809103906000f08015801562000195573d6000803e3d6000fd5b50600080546001810182559080527f290decd9548b62a8d60345a988386fc84ba6bc95484008f6362f93160ef3e5630180546001600160a01b0319166001600160a01b038316179055979650505050505050565b60008181548110620001fa57600080fd5b6000918252602090912001546001600160a01b0316905081565b611080806200047483390190565b610fef80620014f483390190565b610ae880620024e383390190565b634e487b7160e01b600052604160045260246000fd5b6000602082840312156200026757600080fd5b813567ffffffffffffffff808211156200028057600080fd5b818401915084601f8301126200029557600080fd5b813581811115620002aa57620002aa6200023e565b604051601f8201601f19908116603f01168101908382118183101715620002d557620002d56200023e565b81604052828152876020848701011115620002ef57600080fd5b826020860160208301376000928101602001929092525095945050505050565b6000602082840312156200032257600080fd5b5035919050565b60005b83811015620003465781810151838201526020016200032c565b50506000910152565b600082516200036381846020870162000329565b630b54d09560e21b920191825250600401919050565b600081518084526200039381602086016020860162000329565b601f01601f19169290920160200192915050565b604081526000620003bc604083018562000379565b8281036020840152620003d0818562000379565b95945050505050565b60008251620003ed81846020870162000329565b610b5560f21b920191825250600201919050565b60608152600062000416606083018662000379565b82810360208401526200042a818662000379565b91505060ff83166040830152949350505050565b60608152600062000453606083018662000379565b6001600160a01b039485166020840152929093166040909101529291505056fe60806040523480156200001157600080fd5b506040516200108038038062001080833981016040819052620000349162000129565b8181600062000044838262000222565b50600162000053828262000222565b5050600060065550620002ee915050565b634e487b7160e01b600052604160045260246000fd5b600082601f8301126200008c57600080fd5b81516001600160401b0380821115620000a957620000a962000064565b604051601f8301601f19908116603f01168101908282118183101715620000d457620000d462000064565b81604052838152602092508683858801011115620000f157600080fd5b600091505b83821015620001155785820183015181830184015290820190620000f6565b600093810190920192909252949350505050565b600080604083850312156200013d57600080fd5b82516001600160401b03808211156200015557600080fd5b62000163868387016200007a565b935060208501519150808211156200017a57600080fd5b5062000189858286016200007a565b9150509250929050565b600181811c90821680620001a857607f821691505b602082108103620001c957634e487b7160e01b600052602260045260246000fd5b50919050565b601f8211156200021d57600081815260208120601f850160051c81016020861015620001f85750805b601f850160051c820191505b81811015620002195782815560010162000204565b5050505b505050565b81516001600160401b038111156200023e576200023e62000064565b62000256816200024f845462000193565b84620001cf565b602080601f8311600181146200028e5760008415620002755750858301515b600019600386901b1c1916600185901b17855562000219565b600085815260208120601f198616915b82811015620002bf578886015182559484019460019091019084016200029e565b5085821015620002de5787850151600019600388901b60f8161c191681555b5050505050600190811b01905550565b610d8280620002fe6000396000f3fe608060405234801561001057600080fd5b50600436106101005760003560e01c80636352211e11610097578063a22cb46511610066578063a22cb46514610229578063b88d4fde1461023c578063c87b56dd1461024f578063e985e9c51461027c57600080fd5b80636352211e146101e85780636a627842146101fb57806370a082311461020e57806395d89b411461022157600080fd5b806323b872dd116100d357806323b872dd1461019857806342842e0e146101ab5780635daf08ca146101be57806361b8ce8c146101d157600080fd5b806301ffc9a71461010557806306fdde031461012d578063081812fc14610142578063095ea7b314610183575b600080fd5b610118610113366004610a23565b6102aa565b60405190151581526020015b60405180910390f35b6101356102fc565b6040516101249190610a47565b61016b610150366004610a95565b6004602052600090815260409020546001600160a01b031681565b6040516001600160a01b039091168152602001610124565b610196610191366004610ac5565b61038a565b005b6101966101a6366004610aef565b610471565b6101966101b9366004610aef565b6104d9565b61016b6101cc366004610a95565b6105a9565b6101da60065481565b604051908152602001610124565b61016b6101f6366004610a95565b6105d3565b610196610209366004610b2b565b61062a565b6101da61021c366004610b2b565b61068e565b6101356106f1565b610196610237366004610b46565b6106fe565b61019661024a366004610b82565b61076a565b61013561025d366004610a95565b50604080518082019091526004815263544f444f60e01b602082015290565b61011861028a366004610c1d565b600560209081526000928352604080842090915290825290205460ff1681565b60006301ffc9a760e01b6001600160e01b0319831614806102db57506380ac58cd60e01b6001600160e01b03198316145b806102f65750635b5e139f60e01b6001600160e01b03198316145b92915050565b6000805461030990610c50565b80601f016020809104026020016040519081016040528092919081815260200182805461033590610c50565b80156103825780601f1061035757610100808354040283529160200191610382565b820191906000526020600020905b81548152906001019060200180831161036557829003601f168201915b505050505081565b6000818152600260205260409020546001600160a01b0316338114806103d357506001600160a01b038116600090815260056020908152604080832033845290915290205460ff165b6104155760405162461bcd60e51b815260206004820152600e60248201526d1393d517d055551213d49256915160921b60448201526064015b60405180910390fd5b60008281526004602052604080822080546001600160a01b0319166001600160a01b0387811691821790925591518593918516917f8c5be1e5ebec7d5bd14f71427d1e84f3dd0314c0f7b2291e5b200ac8c7c3b92591a4505050565b60405162461bcd60e51b815260206004820152603260248201527f536f756c426f756e64546f6b656e732063616e6e6f74206265207472616e73666044820152716572726564206f6e6365206d696e7465642160701b606482015260840161040c565b505050565b6104e4838383610471565b6001600160a01b0382163b158061058d5750604051630a85bd0160e11b8082523360048301526001600160a01b03858116602484015260448301849052608060648401526000608484015290919084169063150b7a029060a4016020604051808303816000875af115801561055d573d6000803e3d6000fd5b505050506040513d601f19601f820116820180604052508101906105819190610c8a565b6001600160e01b031916145b6104d45760405162461bcd60e51b815260040161040c90610ca7565b600781815481106105b957600080fd5b6000918252602090912001546001600160a01b0316905081565b6000818152600260205260409020546001600160a01b0316806106255760405162461bcd60e51b815260206004820152600a6024820152691393d517d3525395115160b21b604482015260640161040c565b919050565b6006805461064991839190600061064083610cd1565b9190505561082f565b50600780546001810182556000919091527fa66cc928b5edb82af9bd49922954155ab7b0942694bea4ce44661d9a8736c6880180546001600160a01b03191633179055565b60006001600160a01b0382166106d55760405162461bcd60e51b815260206004820152600c60248201526b5a45524f5f4144445245535360a01b604482015260640161040c565b506001600160a01b031660009081526003602052604090205490565b6001805461030990610c50565b3360008181526005602090815260408083206001600160a01b03871680855290835292819020805460ff191686151590811790915590519081529192917f17307eab39ab6107e8899845ad3d59bd9653f200f220920489ca2b5937696c31910160405180910390a35050565b610775858585610471565b6001600160a01b0384163b158061080c5750604051630a85bd0160e11b808252906001600160a01b0386169063150b7a02906107bd9033908a90899089908990600401610cf8565b6020604051808303816000875af11580156107dc573d6000803e3d6000fd5b505050506040513d601f19601f820116820180604052508101906108009190610c8a565b6001600160e01b031916145b6108285760405162461bcd60e51b815260040161040c90610ca7565b5050505050565b61083982826108ff565b6001600160a01b0382163b15806108df5750604051630a85bd0160e11b80825233600483015260006024830181905260448301849052608060648401526084830152906001600160a01b0384169063150b7a029060a4016020604051808303816000875af11580156108af573d6000803e3d6000fd5b505050506040513d601f19601f820116820180604052508101906108d39190610c8a565b6001600160e01b031916145b6108fb5760405162461bcd60e51b815260040161040c90610ca7565b5050565b6001600160a01b0382166109495760405162461bcd60e51b81526020600482015260116024820152701253959053125117d49150d25412515395607a1b604482015260640161040c565b6000818152600260205260409020546001600160a01b03161561099f5760405162461bcd60e51b815260206004820152600e60248201526d1053149150511657d3525395115160921b604482015260640161040c565b6001600160a01b038216600081815260036020908152604080832080546001019055848352600290915280822080546001600160a01b0319168417905551839291907fddf252ad1be2c89b69c2b068fc378daa952ba7f163c4a11628f55a4df523b3ef908290a45050565b6001600160e01b031981168114610a2057600080fd5b50565b600060208284031215610a3557600080fd5b8135610a4081610a0a565b9392505050565b600060208083528351808285015260005b81811015610a7457858101830151858201604001528201610a58565b506000604082860101526040601f19601f8301168501019250505092915050565b600060208284031215610aa757600080fd5b5035919050565b80356001600160a01b038116811461062557600080fd5b60008060408385031215610ad857600080fd5b610ae183610aae565b946020939093013593505050565b600080600060608486031215610b0457600080fd5b610b0d84610aae565b9250610b1b60208501610aae565b9150604084013590509250925092565b600060208284031215610b3d57600080fd5b610a4082610aae565b60008060408385031215610b5957600080fd5b610b6283610aae565b915060208301358015158114610b7757600080fd5b809150509250929050565b600080600080600060808688031215610b9a57600080fd5b610ba386610aae565b9450610bb160208701610aae565b935060408601359250606086013567ffffffffffffffff80821115610bd557600080fd5b818801915088601f830112610be957600080fd5b813581811115610bf857600080fd5b896020828501011115610c0a57600080fd5b9699959850939650602001949392505050565b60008060408385031215610c3057600080fd5b610c3983610aae565b9150610c4760208401610aae565b90509250929050565b600181811c90821680610c6457607f821691505b602082108103610c8457634e487b7160e01b600052602260045260246000fd5b50919050565b600060208284031215610c9c57600080fd5b8151610a4081610a0a565b60208082526010908201526f155394d0519157d49150d2541251539560821b604082015260600190565b600060018201610cf157634e487b7160e01b600052601160045260246000fd5b5060010190565b6001600160a01b038681168252851660208201526040810184905260806060820181905281018290526000828460a0840137600060a0848401015260a0601f19601f8501168301019050969550505050505056fea26469706673582212201b11a3c1f1b8e29bd95994a68c7e1ee9a59a72ca4712ce5d6a3518f13765c40f64736f6c6343000811003360e06040523480156200001157600080fd5b5060405162000fef38038062000fef8339810160408190526200003491620001db565b8282826000620000458482620002ef565b506001620000548382620002ef565b5060ff81166080524660a0526200006a6200007a565b60c0525062000439945050505050565b60007f8b73c3c69bb8fe3d512ecc4cf759cc79239f7b179b0ffacaa9a75d522b39400f6000604051620000ae9190620003bb565b6040805191829003822060208301939093528101919091527fc89efdaa54c0f20c7adf612882df0950f5a951637e0307cdcb4c672f298b8bc660608201524660808201523060a082015260c00160405160208183030381529060405280519060200120905090565b634e487b7160e01b600052604160045260246000fd5b600082601f8301126200013e57600080fd5b81516001600160401b03808211156200015b576200015b62000116565b604051601f8301601f19908116603f0116810190828211818310171562000186576200018662000116565b81604052838152602092508683858801011115620001a357600080fd5b600091505b83821015620001c75785820183015181830184015290820190620001a8565b600093810190920192909252949350505050565b600080600060608486031215620001f157600080fd5b83516001600160401b03808211156200020957600080fd5b62000217878388016200012c565b945060208601519150808211156200022e57600080fd5b506200023d868287016200012c565b925050604084015160ff811681146200025557600080fd5b809150509250925092565b600181811c908216806200027557607f821691505b6020821081036200029657634e487b7160e01b600052602260045260246000fd5b50919050565b601f821115620002ea57600081815260208120601f850160051c81016020861015620002c55750805b601f850160051c820191505b81811015620002e657828155600101620002d1565b5050505b505050565b81516001600160401b038111156200030b576200030b62000116565b62000323816200031c845462000260565b846200029c565b602080601f8311600181146200035b5760008415620003425750858301515b600019600386901b1c1916600185901b178555620002e6565b600085815260208120601f198616915b828110156200038c578886015182559484019460019091019084016200036b565b5085821015620003ab5787850151600019600388901b60f8161c191681555b5050505050600190811b01905550565b6000808354620003cb8162000260565b60018281168015620003e65760018114620003fc576200042d565b60ff19841687528215158302870194506200042d565b8760005260208060002060005b85811015620004245781548a82015290840190820162000409565b50505082870194505b50929695505050505050565b60805160a05160c051610b86620004696000396000610426015260006103f1015260006101290152610b866000f3fe608060405234801561001057600080fd5b50600436106100b45760003560e01c806370a082311161007157806370a08231146101655780637ecebe001461018557806395d89b41146101a5578063a9059cbb146101ad578063d505accf146101c0578063dd62ed3e146101d557600080fd5b806306fdde03146100b9578063095ea7b3146100d757806318160ddd146100fa57806323b872dd14610111578063313ce567146101245780633644e5151461015d575b600080fd5b6100c1610200565b6040516100ce9190610894565b60405180910390f35b6100ea6100e53660046108fe565b61028e565b60405190151581526020016100ce565b61010360025481565b6040519081526020016100ce565b6100ea61011f366004610928565b6102fb565b61014b7f000000000000000000000000000000000000000000000000000000000000000081565b60405160ff90911681526020016100ce565b6101036103ed565b610103610173366004610964565b60036020526000908152604090205481565b610103610193366004610964565b60056020526000908152604090205481565b6100c1610448565b6100ea6101bb3660046108fe565b610455565b6101d36101ce366004610986565b61053e565b005b6101036101e33660046109f9565b600460209081526000928352604080842090915290825290205481565b6000805461020d90610a2c565b80601f016020809104026020016040519081016040528092919081815260200182805461023990610a2c565b80156102865780601f1061025b57610100808354040283529160200191610286565b820191906000526020600020905b81548152906001019060200180831161026957829003601f168201915b505050505081565b3360008181526004602090815260408083206001600160a01b038716808552925280832085905551919290917f8c5be1e5ebec7d5bd14f71427d1e84f3dd0314c0f7b2291e5b200ac8c7c3b925906102e99086815260200190565b60405180910390a35060015b92915050565b6001600160a01b03831660009081526004602090815260408083203384529091528120546000198114610357576103328382610a66565b6001600160a01b03861660009081526004602090815260408083203384529091529020555b6001600160a01b0385166000908152600360205260408120805485929061037f908490610a66565b90915550506001600160a01b03808516600081815260036020526040908190208054870190555190918716907fddf252ad1be2c89b69c2b068fc378daa952ba7f163c4a11628f55a4df523b3ef906103da9087815260200190565b60405180910390a3506001949350505050565b60007f000000000000000000000000000000000000000000000000000000000000000046146104235761041e610782565b905090565b507f000000000000000000000000000000000000000000000000000000000000000090565b6001805461020d90610a2c565b6000610461838361081c565b90506001600160a01b0383163b1515806104fb5750604051634a39314960e01b80825230600483015233602483015260448201849052906001600160a01b03851690634a393149906064016020604051808303816000875af11580156104cb573d6000803e3d6000fd5b505050506040513d601f19601f820116820180604052508101906104ef9190610a87565b6001600160e01b031916145b6102f55760405162461bcd60e51b815260206004820152600f60248201526e10d85b1b189858dac819985a5b1959608a1b60448201526064015b60405180910390fd5b4284101561058e5760405162461bcd60e51b815260206004820152601760248201527f5045524d49545f444541444c494e455f455850495245440000000000000000006044820152606401610535565b6000600161059a6103ed565b6001600160a01b038a811660008181526005602090815260409182902080546001810190915582517f6e71edae12b1b97f4d1f60370fef10105fa2faae0126114a169c64845d6126c98184015280840194909452938d166060840152608083018c905260a083019390935260c08083018b90528151808403909101815260e08301909152805192019190912061190160f01b6101008301526101028201929092526101228101919091526101420160408051601f198184030181528282528051602091820120600084529083018083525260ff871690820152606081018590526080810184905260a0016020604051602081039080840390855afa1580156106a6573d6000803e3d6000fd5b5050604051601f1901519150506001600160a01b038116158015906106dc5750876001600160a01b0316816001600160a01b0316145b6107195760405162461bcd60e51b815260206004820152600e60248201526d24a72b20a624a22fa9a4a3a722a960911b6044820152606401610535565b6001600160a01b0390811660009081526004602090815260408083208a8516808552908352928190208990555188815291928a16917f8c5be1e5ebec7d5bd14f71427d1e84f3dd0314c0f7b2291e5b200ac8c7c3b925910160405180910390a350505050505050565b60007f8b73c3c69bb8fe3d512ecc4cf759cc79239f7b179b0ffacaa9a75d522b39400f60006040516107b49190610ab1565b6040805191829003822060208301939093528101919091527fc89efdaa54c0f20c7adf612882df0950f5a951637e0307cdcb4c672f298b8bc660608201524660808201523060a082015260c00160405160208183030381529060405280519060200120905090565b3360009081526003602052604081208054839190839061083d908490610a66565b90915550506001600160a01b038316600081815260036020526040908190208054850190555133907fddf252ad1be2c89b69c2b068fc378daa952ba7f163c4a11628f55a4df523b3ef906102e99086815260200190565b600060208083528351808285015260005b818110156108c1578581018301518582016040015282016108a5565b506000604082860101526040601f19601f8301168501019250505092915050565b80356001600160a01b03811681146108f957600080fd5b919050565b6000806040838503121561091157600080fd5b61091a836108e2565b946020939093013593505050565b60008060006060848603121561093d57600080fd5b610946846108e2565b9250610954602085016108e2565b9150604084013590509250925092565b60006020828403121561097657600080fd5b61097f826108e2565b9392505050565b600080600080600080600060e0888a0312156109a157600080fd5b6109aa886108e2565b96506109b8602089016108e2565b95506040880135945060608801359350608088013560ff811681146109dc57600080fd5b9699959850939692959460a0840135945060c09093013592915050565b60008060408385031215610a0c57600080fd5b610a15836108e2565b9150610a23602084016108e2565b90509250929050565b600181811c90821680610a4057607f821691505b602082108103610a6057634e487b7160e01b600052602260045260246000fd5b50919050565b818103818111156102f557634e487b7160e01b600052601160045260246000fd5b600060208284031215610a9957600080fd5b81516001600160e01b03198116811461097f57600080fd5b600080835481600182811c915080831680610acd57607f831692505b60208084108203610aec57634e487b7160e01b86526022600452602486fd5b818015610b005760018114610b1557610b42565b60ff1986168952841515850289019650610b42565b60008a81526020902060005b86811015610b3a5781548b820152908501908301610b21565b505084890196505b50949897505050505050505056fea26469706673582212205a4767981a87287c1083312af34fcdfc135edc449a89af40b9f29de96772060c64736f6c6343000811003360806040523480156200001157600080fd5b5060405162000ae838038062000ae88339810160408190526200003491620000a9565b600062000042848262000232565b50600180546001600160a01b039384166001600160a01b0319918216179091556002805492909316911617905550620002fe565b634e487b7160e01b600052604160045260246000fd5b80516001600160a01b0381168114620000a457600080fd5b919050565b600080600060608486031215620000bf57600080fd5b83516001600160401b0380821115620000d757600080fd5b818601915086601f830112620000ec57600080fd5b81518181111562000101576200010162000076565b604051601f8201601f19908116603f011681019083821181831017156200012c576200012c62000076565b816040528281526020935089848487010111156200014957600080fd5b600091505b828210156200016d57848201840151818301850152908301906200014e565b6000848483010152809750505050620001888187016200008c565b935050506200019a604085016200008c565b90509250925092565b600181811c90821680620001b857607f821691505b602082108103620001d957634e487b7160e01b600052602260045260246000fd5b50919050565b601f8211156200022d57600081815260208120601f850160051c81016020861015620002085750805b601f850160051c820191505b81811015620002295782815560010162000214565b5050505b505050565b81516001600160401b038111156200024e576200024e62000076565b62000266816200025f8454620001a3565b84620001df565b602080601f8311600181146200029e5760008415620002855750858301515b600019600386901b1c1916600185901b17855562000229565b600085815260208120601f198616915b82811015620002cf57888601518255948401946001909101908401620002ae565b5085821015620002ee5787850151600019600388901b60f8161c191681555b5050505050600190811b01905550565b6107da806200030e6000396000f3fe608060405234801561001057600080fd5b506004361061007c5760003560e01c80632e1a7d4d1161005b5780632e1a7d4d146100d45780634a393149146100e7578063a719249214610113578063b33b9cf91461012657600080fd5b8062b16fee1461008157806306fdde031461008b57806329aa1617146100a9575b600080fd5b610089610154565b005b610093610271565b6040516100a091906105dd565b60405180910390f35b6001546100bc906001600160a01b031681565b6040516001600160a01b0390911681526020016100a0565b6100896100e236600461062b565b6102ff565b6100fa6100f5366004610660565b61048f565b6040516001600160e01b031990911681526020016100a0565b6002546100bc906001600160a01b031681565b61014661013436600461069c565b60036020526000908152604090205481565b6040519081526020016100a0565b6002546040516370a0823160e01b81523360048201526001600160a01b03909116906370a0823190602401602060405180830381865afa15801561019c573d6000803e3d6000fd5b505050506040513d601f19601f820116820180604052508101906101c091906106be565b156102125760405162461bcd60e51b815260206004820152601d60248201527f536f756c426f756e64546f6b656e20616c72656164792065786973747300000060448201526064015b60405180910390fd5b6002546040516335313c2160e11b81523360048201526001600160a01b0390911690636a62784290602401600060405180830381600087803b15801561025757600080fd5b505af115801561026b573d6000803e3d6000fd5b50505050565b6000805461027e906106d7565b80601f01602080910402602001604051908101604052809291908181526020018280546102aa906106d7565b80156102f75780601f106102cc576101008083540402835291602001916102f7565b820191906000526020600020905b8154815290600101906020018083116102da57829003601f168201915b505050505081565b33600090815260036020526040902080548290039081905561032090610727565b6001546040516370a0823160e01b81523060048201526064916001600160a01b0316906370a0823190602401602060405180830381865afa158015610369573d6000803e3d6000fd5b505050506040513d601f19601f8201168201806040525081019061038d91906106be565b610398906014610743565b6103a29190610760565b12156104165760405162461bcd60e51b815260206004820152603860248201527f496e646976696475616c2063616e6e6f7420626f72726f77206d6f726520746860448201527f616e20323025206f662074686520746f74616c2066756e6400000000000000006064820152608401610209565b60015460405163a9059cbb60e01b8152306004820152602481018390526001600160a01b039091169063a9059cbb906044016020604051808303816000875af1158015610467573d6000803e3d6000fd5b505050506040513d601f19601f8201168201806040525081019061048b9190610782565b5050565b6001546000906001600160a01b038581169116146104ac57600080fd5b6002546040516370a0823160e01b81526001600160a01b03858116600483015260019216906370a0823190602401602060405180830381865afa1580156104f7573d6000803e3d6000fd5b505050506040513d601f19601f8201168201806040525081019061051b91906106be565b10156105755760405162461bcd60e51b8152602060048201526024808201527f436f6d6d756e69747920536f756c426f756e64546f6b656e206e6f74207072656044820152631cd95b9d60e21b6064820152608401610209565b6001600160a01b03831660008181526003602052604090819020805485019055517fe1fffcc4923d04b559f4d29a8bfc6cda04eb5b0d3c460751c2402c5c5cc9109c906105c59085815260200190565b60405180910390a250634a39314960e01b9392505050565b600060208083528351808285015260005b8181101561060a578581018301518582016040015282016105ee565b506000604082860101526040601f19601f8301168501019250505092915050565b60006020828403121561063d57600080fd5b5035919050565b80356001600160a01b038116811461065b57600080fd5b919050565b60008060006060848603121561067557600080fd5b61067e84610644565b925061068c60208501610644565b9150604084013590509250925092565b6000602082840312156106ae57600080fd5b6106b782610644565b9392505050565b6000602082840312156106d057600080fd5b5051919050565b600181811c908216806106eb57607f821691505b60208210810361070b57634e487b7160e01b600052602260045260246000fd5b50919050565b634e487b7160e01b600052601160045260246000fd5b6000600160ff1b820161073c5761073c610711565b5060000390565b808202811582820484141761075a5761075a610711565b92915050565b60008261077d57634e487b7160e01b600052601260045260246000fd5b500490565b60006020828403121561079457600080fd5b815180151581146106b757600080fdfea26469706673582212202edf260db41684738cab83a7ecbc15213831baec781e017104ab3c8c1dc2de8c64736f6c63430008110033a2646970667358221220527bd1633ba9703dd93c6a4033c7be69fb0bdcaef60d5642d68e8ab2e8b452e164736f6c63430008110033",
    "linkReferences": {}
  },
  "methodIdentifiers": {
    "communities(uint256)": "e590b56a",
    "create(string)": "b6a46b3b"
  },
  "id": 3
}